:020000040000FA
:04000000FEEFFFF020
:020000040001F9
:10FF000012001200120001EE01F1110EEE6AE80675
:10FF1000FDE100019DEFFFF0000E0D6E000E0E6E74
:10FF2000000E0F6E000E106E000E096E000E0A6EAF
:10FF3000000E0B6E000E0C6E1200088E80ECFFF0AF
:10FF40008CECFFF0AEECFFF082ECFFF0C0ECFFF0C9
:10FF500081ECFFF0A6EFFFF0FEEFFFF0000ECE6E9B
:10FF6000800EBE6E000E0401006F000EC66E000E05
:10FF7000CF6E000EBF6E000E086F200EC76E12000F
:10FF800061003CF312F5200E12161250136E146A23
:10FF9000156A166A135001180FE1145002180CE18B
:10FFA0001550031809E116500418D8B4DAEFFFF021
:10FFB000DCEFFFF0FDEFFFF0200E01180210031040
:10FFC0000410D8B4E6EFFFF0E8EFFFF0F5EFFFF034
:10FFD0003F0EBE18D8A4EFEFFFF0F1EFFFF0F3EF04
:10FFE000FFF0800EBE6EBE28BE6E13C501F514C5AF
:10FFF00002F515C503F516C504F5120083EFFFF0F1
:020000040020DA
:10000000FF0FFF0FFF0FFF0FFF0FFF0FFF0FFF0F80
:10001000FF0FFF0FFF0FFF0FFF0FFF0FFF0FFF0F70
:020000040030CA
:0A0000008CFEFFFC9FFFFFFFFFFFD7
:00000001FF
