:020000040000FA
:04000000FEEFFFF020
:020000040001F9
:10FEB60012001200010204081020010EBE6E900E00
:10FEC60003011A6F540E1B6F1200000ECE6E800EC9
:10FED600BE6E000E0401006F000EC66E1200000E0C
:10FEE600096E000E0A6E000E0B6E000E0C6E000EF2
:10FEF600056E000E066E000E076E000E086E1200EE
:10FF0600171C196E181C1A6E03011A517F0B1A6FF3
:10FF16001A50196F610064F418F3B1507F0BB16E7B
:10FF2600900E1A6F1200BA0EF66EFE0EF76E010EE6
:10FF3600F86E01EE11F110EE06F00900F5C4EEF4CC
:10FF4600E550E150FAE101EE01F1100EEE6AE80625
:10FF5600FDE10001AFEFFFF0048E5BECFFF072EC09
:10FF6600FFF068ECFFF060ECFFF0CFECFFF0BE9E18
:10FF76005CECFFF0030E186EE80E176E83ECFFF0D4
:10FF8600B1AEC8EFFFF0CAEFFFF0C3EFFFF0BE500F
:10FF9600B8EFFFF0FEEFFFF021EE11F111EE17F1D1
:10FFA600050EDBC4E3F4E806FCE2F40E0D1806E1E8
:10FFB6000E04D8A4E1EFFFF0E3EFFFF0FBEFFFF054
:10FFC600000E0E6E000E0D6E170E0F24D96EDA6A35
:10FFD600050EDA22DF50BE6E0F2A060E0F18D8A4C1
:10FFE600F7EFFFF0F9EFFFF0FBEFFFF0000E0F6EFB
:0AFFF6000D4A0E2A120096EFFFF0EC
:020000040020DA
:10000000FF0FFF0FFF0FFF0FFF0FFF0FFF0FFF0F80
:10001000FF0FFF0FFF0FFF0FFF0FFF0FFF0FFF0F70
:020000040030CA
:0A0000008CFEFFFC9FFFFFFFFFFFD7
:00000001FF
