:020000040000FA
:04000000FEEFFFF020
:020000040001F9
:10FD95000112001200000E0401006F000EC66EA0D5
:10FDA5000E00017F6F1200000EBE6E900E03011A49
:10FDB5006F540E1B6F000E00017D6F1200000E09BF
:10FDC5006E000E0A6E000E0B6E000E0C6E000E0518
:10FDD5006E000E066E000E076E000E086E12000F06
:10FDE5001C116E101C126E03011A517F0B1A6F1233
:10FDF50050196F610044F418F3B1507F0BB16E9048
:10FE05000E1A6F1200048ECBECFEF0E1ECFEF0CD85
:10FE1500ECFEF0D6ECFEF04AECFFF0BE9ECCECFE1C
:10FE2500F0000E106E0A0E0F6EF2ECFEF0B1AE1E73
:10FE3500EFFFF020EFFFF019EFFFF0BE500EEFFFE0
:10FE4500F0FEEFFFF0FC0EF66EFE0EF76E010EF8FB
:10FE55006E01EE00F210EE00F10900F5C4EEF4E5D6
:10FE650050E150FAE1E250F8E1950EF66EFD0EF71D
:10FE75006E010EF86E09006100D4F313F501EE0171
:10FE8500F10E0EEE6AE806FDE1000105EFFFF00058
:10FE9500017D51D8A451EFFFF053EFFFF055EFFF6F
:10FEA500F0010E136E7D29D8A45BEFFFF05DEFFF27
:10FEB500F05FEFFFF0000E136E1304D8A465EFFF9B
:10FEC500F067EFFFF073EFFFF0040E0D26000E0D47
:10FED50024D96EDA6A060EDA22DF507D6F7DEFFFD8
:10FEE500F0040E0D5E000E0D24D96EDA6A060EDAE8
:10FEF50022DF507D6F1200808386898C8F929598C2
:10FF05009B9EA2A5A7AAADB0B3B6B9BCBEC1C4C6D7
:10FF1500C9CBCED0D3D5D7DADCDEE0E2E4E6E8EA39
:10FF2500EBEDEEF0F1F3F4F5F6F8F9FAFAFBFCFD7A
:10FF3500FDFEFEFEFFFFFFFFFFFFFFFEFEFEFDFDD8
:10FF4500FCFBFAFAF9F8F6F5F4F3F1F0EEEDEBEA6D
:10FF5500E8E6E4E2E0DEDCDAD7D5D3D0CECBC9C61D
:10FF6500C4C1BEBCB9B6B3B0ADAAA7A5A29E9B98A5
:10FF750095928F8C898683807C797673706D6A679C
:10FF850064615D5A5855524F4C494643413E3B3991
:10FF95003634312F2C2A282523211F1D1B1917150F
:10FFA5001412110F0E0C0B0A0907060505040302AE
:10FFB5000201010100000000000000010101020230
:10FFC500030405050607090A0B0C0E0F111214157B
:10FFD50017191B1D1F212325282A2C2F31343639AB
:10FFE5003B3E414346494C4F5255585A5D61646703
:0BFFF5006A6D707376797C25EFFFF0D9
:020000040020DA
:10000000FF0FFF0FFF0FFF0FFF0FFF0FFF0FFF0F80
:10001000FF0FFF0FFF0FFF0FFF0FFF0FFF0FFF0F70
:020000040030CA
:0A0000008CFEFFFC9FFFFFFFFFFFD7
:00000001FF
