:020000040000FA
:04000000FEEFFFF020
:020000040001F9
:10FF4E0012001200800EBE6E120001EE01F10D0EB7
:10FF5E00EE6AE806FDE10001D0EFFFF0000ECE6E76
:10FF6E00800EBE6E000E0401006F000EC66E1200F3
:10FF7E00000E096E000E0A6E000E0B6E000E0C6E59
:10FF8E00000E056E000E066E000E076E000E086E59
:10FF9E001200048EA7ECFFF0BFECFFF0B5ECFFF003
:10FFAE00A9ECFFF0E1ECFFF0A8ECFFF0D9EFFFF0C9
:10FFBE00FEEFFFF0BE28BE6EFB0E0E6E5D0E0F6ED8
:10FFCE00040E106E000E116EF2EFFFF00E06000E14
:10FFDE000F5A105A115A0E500F1010101110D8A49B
:10FFEE00FBEFFFF0FDEFFFF0EDEFFFF01200ACEFD7
:02FFFE00FFF012
:020000040020DA
:10000000FF0FFF0FFF0FFF0FFF0FFF0FFF0FFF0F80
:10001000FF0FFF0FFF0FFF0FFF0FFF0FFF0FFF0F70
:020000040030CA
:0A0000008CFEFFFC9FFFFFFFFFFFD7
:00000001FF
